{
  "contractName": "HoneyPot",
  "abi": [
    {
      "constant": true,
      "inputs": [
        {
          "name": "",
          "type": "address"
        }
      ],
      "name": "balances",
      "outputs": [
        {
          "name": "",
          "type": "uint256"
        }
      ],
      "payable": false,
      "type": "function"
    },
    {
      "constant": false,
      "inputs": [],
      "name": "put",
      "outputs": [],
      "payable": true,
      "type": "function"
    },
    {
      "constant": false,
      "inputs": [],
      "name": "get",
      "outputs": [],
      "payable": false,
      "type": "function"
    },
    {
      "inputs": [],
      "payable": true,
      "type": "constructor"
    },
    {
      "payable": false,
      "type": "fallback"
    }
  ],
  "bytecode": "0x60606040525b610020610026640100000000026100df176401000000009004565b5b61006d565b34600060003373ffffffffffffffffffffffffffffffffffffffff1673ffffffffffffffffffffffffffffffffffffffff168152602001908152602001600020819055505b565b61021d8061007c6000396000f30060606040523615610055576000357c0100000000000000000000000000000000000000000000000000000000900463ffffffff16806327e235e314610067578063549262ba146100ae5780636d4ce63c146100b8575b34610000576100655b610000565b565b005b3461000057610098600480803573ffffffffffffffffffffffffffffffffffffffff169060200190919050506100c7565b6040518082815260200191505060405180910390f35b6100b66100df565b005b34610000576100c5610126565b005b60006020528060005260406000206000915090505481565b34600060003373ffffffffffffffffffffffffffffffffffffffff1673ffffffffffffffffffffffffffffffffffffffff168152602001908152602001600020819055505b565b6000600060003373ffffffffffffffffffffffffffffffffffffffff1673ffffffffffffffffffffffffffffffffffffffff1681526020019081526020016000205490506000600060003373ffffffffffffffffffffffffffffffffffffffff1673ffffffffffffffffffffffffffffffffffffffff168152602001908152602001600020819055503373ffffffffffffffffffffffffffffffffffffffff168160405180905060006040518083038185876185025a03f19250505015156101ed57610000565b5b505600a165627a7a72305820253a432eb8636c657e1a1c3597518700cae85c88bb9983fdd6af101aad4a8b8d0029",
  "compiler": {
    "name": "solc",
    "version": "0.4.8+commit.60cc1668.Emscripten.clang"
  },
  "schemaVersion": "3.4.1",
  "updatedAt": "2021-07-04T08:44:13.069Z",
  "networkType": "ethereum"
}