{
  "contractName": "HoneyPotCollect",
  "abi": [
    {
      "constant": false,
      "inputs": [],
      "name": "kill",
      "outputs": [],
      "payable": false,
      "type": "function"
    },
    {
      "constant": false,
      "inputs": [],
      "name": "collect",
      "outputs": [],
      "payable": true,
      "type": "function"
    },
    {
      "constant": true,
      "inputs": [],
      "name": "honeypot",
      "outputs": [
        {
          "name": "",
          "type": "address"
        }
      ],
      "payable": false,
      "type": "function"
    },
    {
      "inputs": [
        {
          "name": "_honeypot",
          "type": "address"
        }
      ],
      "payable": false,
      "type": "constructor"
    },
    {
      "payable": true,
      "type": "fallback"
    }
  ],
  "bytecode": "0x606060405234610000576040516020806103a1833981016040528080519060200190919050505b80600060006101000a81548173ffffffffffffffffffffffffffffffffffffffff021916908373ffffffffffffffffffffffffffffffffffffffff1602179055505b505b610328806100796000396000f30060606040523615610055576000357c0100000000000000000000000000000000000000000000000000000000900463ffffffff16806341c0e1b514610130578063e52253811461013f578063ef89aff314610149575b61012e5b34600060009054906101000a900473ffffffffffffffffffffffffffffffffffffffff1673ffffffffffffffffffffffffffffffffffffffff163110151561012b57600060009054906101000a900473ffffffffffffffffffffffffffffffffffffffff1673ffffffffffffffffffffffffffffffffffffffff16636d4ce63c6040518163ffffffff167c0100000000000000000000000000000000000000000000000000000000028152600401809050600060405180830381600087803b156100005760325a03f115610000575050505b5b565b005b346100005761013d610198565b005b6101476101b3565b005b34610000576101566102d6565b604051808273ffffffffffffffffffffffffffffffffffffffff1673ffffffffffffffffffffffffffffffffffffffff16815260200191505060405180910390f35b3373ffffffffffffffffffffffffffffffffffffffff16ff5b565b600060009054906101000a900473ffffffffffffffffffffffffffffffffffffffff1673ffffffffffffffffffffffffffffffffffffffff1663549262ba346040518263ffffffff167c01000000000000000000000000000000000000000000000000000000000281526004018090506000604051808303818588803b156100005761235a5a03f1156100005750505050600060009054906101000a900473ffffffffffffffffffffffffffffffffffffffff1673ffffffffffffffffffffffffffffffffffffffff16636d4ce63c6040518163ffffffff167c0100000000000000000000000000000000000000000000000000000000028152600401809050600060405180830381600087803b156100005760325a03f115610000575050505b565b600060009054906101000a900473ffffffffffffffffffffffffffffffffffffffff16815600a165627a7a7230582039e91207aedb8ce51917ea88f861533b18e9923aa3353b6f48bfb3073630c8540029",
  "compiler": {
    "name": "solc",
    "version": "0.4.8+commit.60cc1668.Emscripten.clang"
  },
  "schemaVersion": "3.4.1",
  "updatedAt": "2021-07-04T08:44:13.093Z",
  "networkType": "ethereum"
}